:020000040000FA
:200000007F807F7B7F86897A6E848C9A893F61A4A6787182827C80938C50569FB2906E5601
:200020006192A87A6199A46A5D76919E7E5D79917E778F8B80A17A166AD7B27C613871B9CA
:20004000B2834A599EA2706194999D812853BCB8907E2658C3B56E9768188DD8927E8118E6
:2000600071D4AE923B1FA5D28B6E8D535AB4A64A5B9EAC89775A6B8E9095AB51368BBC922B
:20008000667B907E72927E5A759F9887716071979E895E5B9199818AAA613B82AC987F8C5D
:2000A0006756809E927A6A7C9090857A6B718683988F556C9098817CB1781C6FC2AB64835A
:2000C0008D5B699E988D7755689B9B8073B8910051D0C2747F625989A39A855262909B8823
:2000E000799388566B9BC076156DCAAA6D86685D9CC85F2381BE9C6680946F668D928BA1D1
:2001000064148BD69C6F6467949B9E6F3C74ADA181616E8F8E8377758CA378587B8F897018
:200120008092918E7063788586808A8E92775E709C93706B80958C7E7B84899183435AA2C5
:20014000AE81859453568FAA86727E8F8A706985919C803B67AAA8797F9569508DA1A19240
:200160003053ABB3737CAE52399FB68069818A81869C67437FB0A4754B76A09480757383B8
:200180008884827D7A8086827C7B758790827C877D787E9AAE332AB4C87A658A7D76848A4C
:2001A0008585716E8B8C9CA12F39B2C18B7655689E9B7D93844B6E989B8B79637987A49015
:2001C00057648E9A8388916558899E98934D5793A48589895D6A898C8583828187A9603672
:2001E00083B3947793765B76908B8388927860769696756A838E7A74898F8C73708697A090
:20020000594286A892748B8966788EA3913553B2A88C844967999E7A88925F60949A8F82F0
:200220006462858E88997D5A7594A7834F6B99977F8E845E6B87908596905160949E848FBE
:200240007756769B97756E868A9D82466E989682907962798E91856F7386878481777582C9
:200260009E96566189998385986D5380AB9F515890A3807E946F5B879691865B6C94A88E4A
:2002800041609BA2848C7164848F7F6F7C90897F887B6B808989AC622F87B6916E8F7C62A0
:2002A0007D928B81707C879899514892AE966D637C8C88889E69568799827076888F828624
:2002C000896C6A888F8F856666879A8E676D858A86818E8F65618B98947C59728D87818336
:2002E000878679748086857C7A808D9B6D4A76A3A2795C7B9389807C797F8282807E7D800A
:200300007A7A88A07D58778989828482838480727481868FA45C4486A892867462798B91E3
:200320009972577B918F8894685E84A378647F9B976962838E917A6D7D81808486878772CE
:200340006E838B8C887066859B75697F8B897F828A8D69588B959F85446A9E9A798D865BBC
:200360006F958C987F486D9B9784926C5B85A57C63768E8C878F70607A8F8F996F59799190
:20038000907D9D7D48769D8F7E7A7A80A08C3E649F9D7C7A7A83839580546C949A826D7B6D
:2003A000827F8287947E5A7593958D6A61829390796F7D8583827B767C8792916666808C4F
:2003C000838E95635E83978E96685B8092968F5E6288958185906965869E9C595C89948427
:2003E0007A91975A588A9B84858E705F79958C957F546E91937C7D82A27D476D9895878CFC
:200400006A69808E8F836A758488867E7578859C825E6F8F8E8B92636085958C8D6C678317
:20042000897B7A948569718D8D987A4F7B97978F63608694888F825E7482858185858979BC
:200440006F7C89898B7F62668E9695855F6C868C8A8D706C7F898C827072819395686286CE
:20046000998372788C936E6C8086818991756A7E877E73808B8485866C72849798595B8B9D
:200480009C839182576E8E917D8B8567758A9E8F51658996807D8581767F81A47A3D75A464
:2004A0009380906960849290875C6B90A18A5B6E86959371667C89887F7E7F7F99834B6C78
:2004C00094A77E62748B8A7E809A795175949196745B7B908C7B8C8165758E898A84686E23
:2004E0008A918F74637B8A8680767E88918E6365818E8B8D72687E8C9789606C81919676F8
:20050000657C8D857C808D8E626185968E766E7D838A977761758A8D808A90745D79958FF4
:20052000706E838B89856F6D818C857A7D8383807E7E7F7A78829685626E8791987B5E76FD
:200540008B8C7D808D8A5D678A99856C769692666983898E7F70788087838D8B65658792A5
:200560009179687E8B8073809A89627181868184828B93675B819291876F728387897F7596
:20058000798082827F7E7F8081807D7A7883868497775A738E8F81827F7D7C8081837B787B
:2005A0007B81808C9864598CA77E5C798B88858A76767D877E7A7A7A8386838679767C924B
:2005C00099575A8B9C83838D6D68858B8A8A6E63829393796C7B85867F76767F898580972B
:2005E0008056708F908B8B69707D8280848B8A6A6983928C767382847A7C868A8D72648142
:200600008D7E757C878E926E66798A86848D726A868B827D91885F688A9483767C83817EE8
:200620007D7C7E7E80808086817B7C82827B757F869289626B838F889279667789957E6ADE
:20064000758289828D8C6663868F8A926D637D8F887F8B7F687987988A586A8D94808B869A
:20066000646E958C6B70888F827A80937F6074868681858C8E6C6A808884817B7881869298
:2006800081647485887F7E8083807F7E7E7D7D7E808080818180798391796D778885828A7C
:2006A00079697E8B8B8C796480907F757A86868B856A6E818F8B777581877F797A7F848263
:2006C0007F94835A6E8A9084947B63778C977C6473878B8497755F7A9188898D6967858E32
:2006E0008E83677289857A787F8685957960758B8C84937B627A8D8B8B72697D8381838913
:20070000907C627394926D6E7F8B8681818F8364708289887E748293816C778083878676FB
:200720008684717483928B6D707F86898D7A707C86817A797E86888E796B7A837E7F8693C1
:20074000826672828B818A8A6B68859D836674878D7F8184777482857F96844F72959182BF
:200760009170647F8C8B8A6C6A818B848293816474828483848595755C778D8D9177677AAE
:200780008889808D8065738B8C8F76657F9E8D636F858F8183817779818281808E79657776
:2007A000888B8380788C8A666C838F878F86696F828B8B7A6F7C8488847D7C7F7F7F7E7D3F
:2007C0007979848888847E737681847D7D86868C7F6570858D8B77717F8689827A7A7B8138
:2007E00085827C7C8184847D74788183807F817C7D868390835E708D8A8A8F68698190850A
:2008000081867A6D7D8584877F6E7A898E8C75677C8A82787A8486827F889169637D8D8AF9
:200820008F7C6E7A848A87746E7D8F92706B7F9093786C828A7D777E8183867F747D8F81C7
:200840006E757F8A8583808C82656E868A888A736E7F8B8D7E757D8282807D7D7F808181BA
:200860007F7F7D797D8587848173727F8286838F8D696B7C8786828B88696F858F906D6AA6
:200880007E8C87848E7865798A8488906C697F8F967E6C778386808C806472898E8E766D6C
:2008A00083968967728188888D79747B82877E78787D83908A686E828C817F80847F7B7C48
:2008C000838884717589977863788586888C727281938B6B6B7D919175707E87878D816A30
:2008E000728687797A7E87878F7E6B727F858A9272697D8D84848B70698199896672888D0F
:20090000838C796C767E838990756A828A918869707F888790826C7581837D838F77697E04
:200920008680808A947A657584888B846F79828A887E757D7F7B7C84878E736A7F91906CC0
:200940006D7E8E927B747E7E7D81828181797A818697765B7A9B946E718089807E8F8463B8
:2009600071868D8E8470797F85847C767A7C8588847A8690716B7E86868285917D65748093
:20098000878983757D817E7B84868E7A6A758289848F8B6D6C7F898F8868708693846E746F
:2009A00085898A7D7079808287927A6B77878B927C6A788489808486706E858492855F715B
:2009C0008C97906E6D81897F858F6B66818E88907F6979868E866D707D88878784787A870C
:2009E000837378878E776D7F9194766D7A82848A8B74757A808287917565788A8980808111
:200A0000817E7D80827D7E83967C5D758A8C887F737B7C7F84927A6B7785898A82838572EA
:200A2000757B83858C7D717A8283807F7E807F7C7D82858880747784877F7C7F8281807FCF
:200A40007E7F7F80807F7F81817C7D838C806A738589858277838677798284838780787BAD
:200A60007D7F807E7D7E7D83858A8A706B7E898C8271758489937F6A7880888584807F7988
:200A80007C7D80847E74808686888E7363788A87848975707E8A8C80787E827D7980858667
:200AA0007B757E8C836F798589847F7E7F7E7E7E7E7D7F807E7E8990786F7A878A7B797B59
:200AC0008381858F7468798989848F7F6C7A89937864788A8A828E7C6877888A8A75707F30
:200AE000888B81787B8080807F7A797F8B90726E7B8A878C906E6A7D8B83837F777B828002
:200B000081827A7A82848C8F6D6884908C776F7E857F7981878C826F7483897D7A7D8586E3
:200B2000837D898A676B828C8A8D77727D84817D89886D728086838593826B77817F7D84CD
:200B40008A897072839380687683918977788185817C7C7F817F767A88947B6D7E848283A7
:200B6000868B836A6F898A7777808890876D727F868B876973858C81908064748B89878E73
:200B8000746C8188878C6F687C8A898D7F707E8C8D6E6C7B878691806B7A8A897E847E7481
:200BA0007A83827B7F838E846C727F898381847F747E83838382797E848586827A73737E57
:200BC0008384817F858D726D7E8889817D8585818074777F827D8186898B76697C8C7F7526
:200BE0007D89877D7A80838B856B727F88888D7A747D858A7E73797F8183848B8C6C6A7F0E
:200C0000898A88747681888A7E727B8C85717982828087927D6975848581827A7E818C8DC0
:200C20006D69848C90856B73818783818F8464758994846C758288828C886C6E7F89878DCB
:200C4000776F7884878281837A798084818C8D66708B8B8387726B7F8A8D81727B848983AD
:200C60007B7A7B80838280807F7F828278788386827F7F7E7D7B798283858F75697C8B9483
:200C8000886F73838680877570808C92736C7E89898288856C6E84898C7F6A798B957F6C79
:200CA0007882898D7C727C8487828B79677B8D7E7981827F818E866B70818A83837F7F7F43
:200CC000848C806976888E80787E83817F7C787C80878A73737E86868C8776777C81838025
:200CE000787C7F7F808B8F77717B858D7E757981838788736F7D878B83797E808083848101
:200D00007B86876A6F818C86898B766E7C87897B747D8385848080807F7E7D7D7E7C7F84EF
:200D20008D8A6F6F7E87848D76697F8A898F766A7E8C888A886C71828889806D75838B8EB6
:200D4000786F7C85878A8871747E86817C818C7970798A957F737A848581807D7B7C7F82B3
:200D6000827D7A7E83848281817F7E7D7E7E7F8081827E7C7F878A76717A80838391806C8B
:200D800076868B868F7D6A768E887173818F8274788285878574757D848E84767B82868753
:200DA0008B776F7A86817C7C7E86828987696F868A848C7D6D7F8B8A89756B7A878C7A7756
:200DC0007F898D7C747A7F848189846B718689917B687E8C93827179838587857473798126
:200DE000888C7370808A9182717B8387858C7B6E778186867A7880807D8385878A6F6B8207
:200E0000898387847179868A8B7D6F7A818482878A766F7C85838B866E747F8988847B7FCE
:200E2000897D6D798286817F878C77727B808987777782878C806C7582888A8A76787F86C2
:200E4000877F757B7E82827F7F7D7F83848E77697A88918971768589827D7A7C7F82837DA4
:200E6000777E848381817F7F8280848271738286838E806C7786898E826C77828881808C75
:200E800086667488927F737C8584857F77797D8081807F81838382807E7B7D867F797B7F79
:200EA000848B8074787F84878F766D7B8985828A776C808889857579859281697789907B33
:200EC000757E868B7F6B76808782858F7E6E7B898E7B77798580838A6F6B848B848985702B
:200EE0007C8987887E6A75848E8477798285898A6F6D7E8983848A7874858783857B767A02
:200F00007B7F8186887C707B858F7F737B83868B887676848A777480837F7E828484837ED4
:200F20007C7A797E8B8572787F87858C8B716F7B85848C80727A8388877B767E817E7B81D0
:200F400084827E807E7D7F818284807B7D83868679717D82858C80727B85868C7A6B7885A5
:200F60008881817F858F76687C888A897D777F80837F7B787A7F868E847379808688827278
:200F800077818E827278868B817C7C868677747E848C816F7783898B8C7373808B89727169
:200FA0007D85878D83747A80887C787D807E8483848B7169848A878D756B828D8789866A32
:200FC000728388817C7C838E816C7B878A847B7A7E7F817E7E7B7D82858D786C7A8B927E19
:200FE000737D8789896F6D7F89828589747586888687756E7F888B80737883868D816E7516
:20100000828A8F856D798484897B69798788878C7475818B8A776E7A848986817C7D8688C1
:2010200070717C87848A887474828A84797B8E856A73868B8D8571788185868371767E86D4
:2010400087827B80807E7C848A79727E83838584888A6E6C7D89828A877176838A83897E89
:201060006B7483888A7A71818F8C737782837F82858A796C788A85777B8288858B7F707897
:2010800081827B81868E866D7282887F848473788787817E81827E797E85887C76808F8247
:2010A0006B76838787897B777D858B7B707C85847F8285877D767A7F7F7C80878581847B46
:2010C000757F838D826A778A8D8A7B737B7F82807D7D7E82868D8971707D858A866F74842E
:2010E0008A8D8871768187838A786E7A8C86767780858C8571768188828080847F797C84F2
:201100008986787981827A7D8381897C697B8A8687887276868A8A7E6F788187837C7D82DC
:2011200083837F7D7A7C82827F7E7E7F7F82867A7C828991736A818B8880737780818187BC
:201140008E7A737C8385888175777D8289857078838381848C89707181887E7D7C83838897
:2011600089716E7D8883858A76728489898774728088887C777D8382868974717B85878C79
:2011800082737A80827D80897D717C83888B84797C7C827F85837077858F876F7984878362
:2011A00084878070758087827B7A7F868E81737B84847F7F8184857D757A7E80807F808244
:2011C00083847F7F877E78798185818486766F7D888584877E757B8488817276838E8A7318
:2011E00073828D8B7875848C7F797C7D8181818A796A7A88878A89747884907F73778183FB
:201200008289796E7D8A907A727D898780887E6C7B848A886E71878D898B77717C838682D3
:201220007578818688827E7F807F7E7D7D7E8081807E80848C7C6E768486898B74758389BC
:20124000808A786A7C8A85868B767584857F897A6A7988898C84737A818583787A827D7EA7
:201260007F85878C7E767B807E7B8084828680707885848B866F7485898A8972748088846B
:201280008D7C6E7B868588766E7E8B8A73778188848C8571747E85868A7A727D88817B7B6A
:2012A0008083868475777F8388857C7E8182858379797E807F7D7E82878A76717B85858D2B
:2012C00081747B84878187806D7484878B7E757D85868B846F737F85808A7F6F7B88868122
:2012E000828E7D6C7A868B847C7D81807E797A8485787A7E82848E8975767D8382897C74FF
:201300007B8387867B787D82827E7D7D8284818481717B84898D7670828B8B8873707F83D9
:2013200083887A6F80898F8171788486868877757E838280848A76717D8588877F7B7F7EB3
:201340007A7C80898170778389898C7575818C8370768489807E7F83837C808375777F87A4
:2013600083808083858277787A8083858B7D727D86898578788080808386897A6F79818679
:20138000827A7C838584807F7E7B7C81848479767E89887D7F828281867F77767B80898552
:2013A000747A8287878B7C757982847B7C7E8083828A846D738288828281817F858674724C
:2013C000838A8B7E757B82868776737C83868B87777A7F817D81887B707C868E87787A810C
:2013E00085878776747E827F7D8085867C777C82817F80808485898172757E81838B7B7600
:201400007D878781818176778281888A6E73888D8285826F7484907E707C89898588766FD8
:201420007B848885737885898D79707B86868183837F7B7C818673758391896F77858885A9
:201440008075797D8184837F8182827F7F7D7D8081807F7F7F7F7E8082817E7E828483809A
:201460007E83887B747A80817E8686737681888B85797E89807376808C817A7D838486876C
:2014800076737C817E8085898679797C7E7E888575797F86848C8975747D8581807E7D7C6E
:2014A00084887474878A898273767F85837C7C81848482807F7E7E7F7E7D7B8083817E8136
:2014C00080787F828A8C6E70888D8D7D6E7984867F8684757B83838A756B818C8689817019
:2014E000798385867C737D8488867E7B8082807D7E7F7E7D8183857E767A8284817F8183F6
:20150000817F838A7B737B808381858D7A737E82828182857C707983837D818C81737D85DD
:201520008986807B7E7E7B7C81858777737D8A857B7C808583887D73797F82868A7C787EB8
:20154000848B8674777F87838288786E7E8484877C728188867F818A796E7E868480858981
:2015600083727580837C7C7E8586848187806E76898D78767F8585898974747C8180838581
:20158000877E777B80807D7D8081828383827F7E847E797D807F7F82868778737E827F7E65
:2015A000808585858977717A84878382807E7D7E7E7F7F8184837E7E80817F7C7A7E858827
:2015C0007C78808386867C7A7C7D818280847D737E85858782747C878B8576737D858A7C19
:2015E000737B84898D7C727F84868472738189848A8470758286838977727D8B8978777E07
:20160000858287837376818789817A7F8181838878747E85817F82827F7E887B6D7C8889CB
:20162000887B76808587817A7B7F8181807F80828282807D7C818779727A8385818B8371BB
:20164000788588878B79757E837E7F88786E7E8A8E7F777E8484868374767C8285817B868F
:20166000857D7B7D8284897B737981858181837B7881848384807A8185837E89826B73887E
:201680008D7E7A7E8681848271747E86848B84767A8282818777727C85868B84787E82804B
:2016A0007A7B7F8482797B818585818080807C7D80838776717D878583877F7683877D7C3B
:2016C0007F858A7F72777F81818779747E878A887C7B7E81887D757A8389827B7C81838213
:2016E0007A797E818281817F7F848A7E757D808082858C7E707880868879747D84848387F5
:20170000747581898B777380898E8474788181867F7078868B807C8084848077797E7F7EEB
:20172000848B7F757C84878A7B747D81848485887D6F78818583787881868782807E7B82AB
:201740008579777C858B8878788082838175788085817F86887A7A7F85848488786F7C839C
:2017600086867977818687807A7D807D7F82888373778187898978787D83848A7A717A8474
:2017800083828879738288888879757F85867E787A7E8185847979808383838383807C7E4B
:2017A000857E757980888A7C7A80848A8377777D8180867F727A848782878876767F878A2A
:2017C0007F7A7C808281817A7D807B7E838482808283857D73798084837E7E818484817F18
:2017E0007C81867A757B828B84767882838585727581888483828281827B767C81808085FD
:201800008977747B86868A877476808581887C727B8486877C777E82817D7F8186857675E3
:201820007D858486897876808A8A7A787E85828180767A7E868A7373828C868389796F7CB1
:201840008480838A757183898C8373798289897974818486827274808686897B757D83868B
:201860008379797F8283817F7D7D808782757B8383818385877A75797E828982777C848676
:20188000848676757D81808286887F777B7F807F7E7F818284817D7D848778737B85858359
:2018A0008B81767D81807F82857C747B8083807E81838382807F7F7E7E7F7F7E7D7F828A2F
:2018C00081757B7E83828086816F7C878582857B7C8485837F787B80827F7E82867B77821F
:2018E00088847E7C7C7E7E7B7C818A857479828E8979798085808282717381868885787CF6
:201900008488867C787B7E8080807F7F88867B7B7C8081817F7E7D7F877D717F88868782C4
:20192000757B848882797B7F7F8384898473747D83857F787C82888A7C747E858B7F767DC0
:201940008385828187786D7B878C7E797F8484868276777C807F7F84887C7B828480818289
:2019600080847A70798385838980757D858B80767B82868288816F76818786757683898379
:201980007F8182877B7179828584807D86877B787F83817F7F8082857F747A8684767B825F
:2019A00086828183878277777B7F8283837F7E828A80737B8487807D808281807E7D7D7E2A
:2019C0007F7F7F7F7F7F7E8083817D7C7E7F82897D757D838689847A7D7F7F7B7C8483771B
:2019E0007B808383878A7B73797F878678798187828683707381888283857C7A81848B76EC
:201A00006D808883887D717C868580877D727C8584887F757E8689817577858978747E88E0
:201A200087828388786E7C8487857B7A808383877B737D838380838384817A767C84837BB4
:201A40007D808586857F7B7B8484757781858281888778777C82827E80818182818183768C
:201A6000727F858882777C888C7B767D82848087847577828782848373737F838183817A7B
:201A80007F88837A7E8387887C737B81817D8181878173767F8486887D7C8082808385764C
:201AA000757C848684888575767D828082857A767F858387857578808686837C80847B753A
:201AC0007C818484807E7F7D7E81817E7F7E7C7F82828C806E7E8A867D7E80817F837A7419
:201AE0007C8487837B7D8283827F7D7E7F8080807E7E80878677777D848A82787E837F84E4
:201B00007E7178818587897B7C7F858379767D8285887A767F8787898074787E85817A7BE4
:201B2000808384887A737B858383897675858A83868376777F828080817E797C8285807CAF
:201B40008185837F7D8082817B7A82867A7880858784807F7E7D7D7C7D7D80848481828482
:201B600076747E8485828081807E828679757C84867F7E86897B777C7F7D7E8286827D7E7E
:201B80008182807E7E80808080807F7F7F7F7F7F807F7D7D8485797A81838182838080814C
:201BA000828678717A84848883787E83898378787C81808485777781868782787C7F7F803C
:201BC000828780727A858B7D747E8B897D7D8082828078797D7F7F84897F797E83858783FE
:201BE00078797B82857C797D8188827A7D808080818382787781878B7F767D8387878279F8
:201C00007D847E757C808485827F7E7E80867F727881858282808181897D747D85868388C6
:201C20007A7378818280867E747E8688887D747D83887F727A838A86787B828586887B74C2
:201C40007981817E7D80827B7B828583838B81737A7F8281887D7479828381867A747F869D
:201C600087887D7B818380818476747D858984797D8285848679777C7E7F828880767A8170
:201C80008382867C777F84838183868379787D7F7E7E808487877B777B7F82807C7E82834B
:201CA000828083857A777C808387837D7E7F817F7B7A82837B7C7F82858B84787B7D82802E
:201CC00080857B707D84837F84897B758287847F81838379767A7E8086877A7A8085878A03
:201CE0007E787B7E807F858076798285878777767F848583767A82847F86847478828789F8
:201D0000857A7D7F81807C787A7F8785797A8686807F7F827F828275757D84858A7F7880DB
:201D2000878676767D84848984757880827F857C748089827E8285857F77797C7F818388AA
:201D40007E767D8486877A767D83858983757B82877B747A8389827C7E8380857F747980A2
:201D60008682888A787682837E837E737E87878881747A8185817978808584807F80818060
:201D80007F7E7F7F7F7F7F7E8082817B7B82897C767E868781807F817F837E757980848455
:201DA0007F7E828082808581737680858183887A758088877B7B818483817D7C7C7E7F8033
:201DC0007F7F80807F7E8083877D767B82848986787B7F84838579767D8282857D777F860F
:201DE00088817C7D7F81858478797D8283897F787D8484858476767D817F7E877F737E86F3
:201E00008681818284827B787C7E8080808081828483807E7D7D7E7F7F7F7E8088847C7DC5
:201E20007F8381848476747C84827F817F797E818986737B8C8E7A757E837E8181767982BC
:201E4000868780777D83888578787E82828181807E7E89807279818586897D797C7E808088
:201E60007A7B7F8283828185867B7A7F7F808281828276778085897A7581898A8575788071
:201E8000838577767F8583828981767B8184857F787E85877B7A7F8283867F7A7D7F7D7B52
:201EA00083857A797D838182867A747E86868A84787B8183837C777D7F8283837F7D7D832B
:201EC0008377798286858180807E7E807E8180757987867A7E868D7F747B83847F7F80820B
:201EE0007C7B80848783797C81827D7B7C7F7F7E808485817B7C80828383827E7C80837BF2
:201F0000787D8283818183857F797A7D7F7F80818484877E7379808588807A7F83848084C5
:201F20007B727A8385867E7A7E8584868174777F85838A81777D8383837A757B8185847FB9
:201F40007D80868578777E868483887C737D858778758085838679757E878A827A7C817F8F
:201F600083827578808586887E7D81827D7C7E827F787B80818085887D7D7F838382867965
:201F8000707B838080847A7B838585877D777F83847E757D8286877777818A867E7D7E7F56
:201FA000807F787983867C7A7F8387897D777D84877E787E8385867F787B7E807D7E7E8138
:201FC00082817F857E757B8285838083887F797B7E8083817E7E7D8081838377757E84870D
:201FE000847C7D8189877C7B7C81808185757280858182837C7E838483847D7B7F82807EE8
:202000007E7F89816F79868A8781787D7F7D797E84817B7F828584827E7E7E7E7D7F7F7ED4
:202020007F818181817F7F7F7F807F7F7D7F81848479787F7E808186887A777E8685868899
:2020400078757E80808277777F8688847D7E80817F7C7E7E7D8181838473768387897E77AA
:2020600080878680837D737A828183807A80838A82727984868581797D8184837E7A7D7E6B
:202080007F7B7E81817E7F807D7E82848B7B72808887857B777D8184817C7D808283818048
:2020A0007E7C7B7F867E777D85877E7D8288827B7D7D7F8080857E737A8284867F7B808334
:2020C00085837F7B7C7E7E7C7E8686797B818585838680727680877E79808986787A80840D
:2020E00084867D7A7D8183837E7E8080807F7E7D7E7E7F817F7D7D81867F797E81838684E5
:202100007C7A7D8181857B767C83868982797C81877C777C838483887C747B83827F847CD7
:20212000757F85858881787F848781777A80807D7F8281837D747C8485867F787F848380A9
:20214000858277777E838783787C818484867B757A81817E7E8082817F7E7E8182797B829D
:2021600084828383877F73777F8382877D787F8688857A787C7F81807D7D8083887F787B6C
:202180008185898578797F827D817C767E838984757B858A897D787B7F80847D757D858646
:2021A00082877D777B80828180837D767D8383808883747A8588878478797C80817E7B7F34
:2021C000828483817F7F7E7E7E7E7E80808282807D7D83827A7C7F81878A7E7A7D828181FE
:2021E0008478737E848380818684797B81848684787A7E83857D7A7C80818381787A7E82FB
:20220000878A7F797E81838376777E858484887E767E817F827E757D8488877A79808782BD
:20222000747980868289877978808280847A778083807F8183817A7D7E818281817F7A7DBA
:202240008084887876878B817D807F7C7B7E8280797B80858980797E81838183867B767D89
:20226000818486807D7F80807E7B7B7E8080808283877F767B8283818182837D7B7C7D7D6F
:2022800082877F7A7F8485808081847F75787E8284857E7E8384807E7C7D7F7E827F757B52
:2022A0008288867D7D818481818274758085887C7580868984797B8083838479777F818023
:2022C000867C767D848687877A797B7F7E7F837D767E8487877F7C82837F7C7E7E7D7D8010
:2022E000847F7A7D7F8382868476778184808482767D858480808581767B8488827D7E80E2
:20230000807E7C7C7E7E7D7F828780787D8289877D7C7F828276777D838286877C7C8184CA
:2023200082847B757B8084857E7A7E82867D797D8284868578787F818480767B83878489A5
:2023400082767981877D777D8484838579757B86837C7E818481857E747981868380818294
:20236000807C818476767E858689817B7D7E7F7F7C7B7E808282838282817F7E7C7E807F72
:20238000827E757B8384818981787F84848181817D747980837F7E84877D7A808384837E45
:2023A0007B7F847F797C83847E80818281827E7B7D7D7C7E80867D777C858786897B777C34
:2023C00083807E827B777F82838484807D7E847D757C828585827F81807F7D7C7C7E80800F
:2023E000828383837A777D7F7F7F8284838781787B7F828081867D767D838687807A7D7FE5
:20240000807C7C7D82847B7A7F83868A82797C7F82847E767A7F8381867E757B87867D7ED1
:202420008284848278797D8082807F828382808080807F7A787D7F818383887E777C8484A5
:2024400082877E787F8280827B747C8387867E7D8082807D7B7D7F828479787F858987798A
:202460007A8082847B767C838587877B7A7E80808379777D838589837A7C7F81807C797E79
:2024800081818283817E7D847D757C81848584868276777F83847E7A7F82828384857D7545
:2024A0007A7F827F808182857E7A7F82818183858579767A7F7F81867D7A7F8486877F7B23
:2024C0007C7E807E837D757B8284828783777B87887C7C83867E7C7E7E7D7E8380787B8118
:2024E00086827F7E8081837F797B7F82828180828383817F7E7E7D7C7F80848176787F83EB
:2025000086847C7F83837F7D7D807F7E7E847D777D87887E7E81848380837A737B828286BF
:2025200083787C838882838275758085817A7F8587847C787C7F807D7F81838381847D74B1
:202540007A8087857D7C82847F7F8277767F8486837D808282807C7A7D7F807F7F84867E84
:202560007E808282828479757C838283867A787E848780787B80837F7F817B7A8282878566
:202580007679858785867A757D8183827A7C8284817F7F7F7F7D797B7E808283887F787C5B
:2025A00083838583797C81828081818377757C83838282858479798083857D787D8285861C
:2025C000867B7A7D7F7C7D80837F7B7F82827F7F8183827A797D8182817F818383807E820D
:2025E000827B7B7D7E7E7F7F7F8282787B848481827F7F818382827F7D7C7D7D7E7F7F7FF8
:202600008080808080807F7F7F808081807F7E81847D7A7F83818081868378797C808086C3
:20262000837A7C828586867C797C7E807F8380767A818586817C8083817E7D7D817F7E84A6
:202640007B7480858383847A7D8383838377767F84848578798186857A797F8285867F7C89
:202660007E7F807D7B7F7E7E7F818284857D7B7D7F8081867F787B818381857E757C838472
:20268000827F7F8182877C777D83848786787880857C7A7D8181847E7A7B7E7F83867C7B4E
:2026A000808487887F7A7C7F7F7E827C767D838587807D8082837F7B7C7D7F80828479762D
:2026C0007F87817A7F838585807B7E7F7E7D8082837B797D8183817F808281807E7E7F7E04
:2026E000818379787E8586808084847D7A7B7E7E7D8086817B7D8185877E7A7E81838481DE
:20270000797B7D80817F7C7F80807E8085817C7D7F7F7F808084827A7C8184848281807ECD
:202720007D7C7C7D7E7F818282817F7F7F818277778085828682797D838686807A7D7C7EB1
:202740007F82837A778084807D7F8183837D7A7D8082818081838382807F7D7C7E807F7D8B
:202760007E7D7E7F838879788488887B787E8382847F797D8285847E7B7D7E807D7D7D7E6E
:20278000817F8382787A818586887F7C7F81817F797B7F818283817F8081837A777C818345
:2027A00086817C8185837D7C7E837E797C808584878479787D817F8182797A828582818618
:2027C00080777C828584807E7F7F7D7B7D7F847C797D828487897D7A7C807F827F777C8217
:2027E0008687817B7D7F807F7D7E7E808280838176787F85848384817A7C7F8581767C85E6
:2028000086858476767E818283797B828687857B7C7E7E7C7F837C787E8489827D808280C0
:202820007D7F807D7A7E837D7A7F82858682807F7E7D7D7D7D7E80807F8083877E797D81B2
:20284000858381807E7A7B7D7F7F817F7F83867F7D80828479747C838382867E7A7F838482
:20286000827B7B7E8183867D797D8284867D787D8386867D787D7F828077797F8486887F65
:202880007A7F827F7D7D7F82827D7C7E80828181837B787F86887B7A838783847D767B7E51
:2028A0007F7F8286827C7D82857A787D828486847C7C818379787D818384818181807F7E1F
:2028C0007D7C7D7E80818183867F7A7C7F83857D7B8082838680797B7E817F7D8282777A16
:2028E0008288858880787A7F81827C7C808283878379797D808381777B82868382807F7ED7
:202900007E7E8081817F8081817F7D7C7D7D7E8080808183857D797D8185867D7C7F8382C3
:20292000848077797D817F838178798488807C7F8283837C787C8083827F80838382807EA8
:202940007E7E7D7C7F81807D7E7D84857779838885887F767A7F81827C7A7F8385827F808A
:20296000837D7A7C7F838484827B7B7D7F857C767D858783877F75798081837E787E84856B
:20298000857E7B7F81807F80818281807F7E7D7C7C7E7F807F8085857C797D83817F807E4B
:2029A0007A7F82828282808283827F7E7D7D7E7D7C7D7E8083887F798183838183837A7625
:2029C0007A7F7F83847B7B808587877E7B7E7F7E7D7E81827E7B7E80818180808080808004
:2029E0007E7D82817C7E8083838180837A767C8383828781797D8285857F7A7C7E80807EE6
:202A00007D7F80817F8080807F80807F7E8381797C8184848280817F7D7F837B797D8081C9
:202A20008388807B7E83827D7C7D80807D7A7E84807B7E828683817F80837E7A7B7E807EA8
:202A40008281797D8385838382807D7B7C7E7E7F80818383817F80818279777C828286817D
:202A6000797C838684877D767A7F80827C787E87897E7C7E8281838077787F83867F7A7F70
:202A8000848683807F8179787D828382838479777D84877F7C7E8181838077797E8384873B
:202AA0007D7B808481847B757C838281847B7A8082867E767E86868681787B7E81807D7A34
:202AC0007D80838680787E84867E7B7F8383817F8081817A777B81817F808287857E7C7CFF
:202AE0007E80827C7B7E828382808182827F7E81807B7B7E8181807C7D82817B7E828385E2
:202B0000867F7D7D7E7F827F797C808384817E7F80807F7F7F7E7D82807C7D808487817DC2
:202B20007F808183807A7B7E807E7E7E808082837B797E82848384857F7C7D7F80828079AA
:202B40007A7E8283817E7F807F7E808081827A787F8386847B7B808485877E797B7D7F8385
:202B60007E7A7D82848783797A7E8282847B797C818180847D767D838688807B808382825E
:202B80007B767B83847A7B818685877E787A7F82827D7D808384827F7D7C7F827B7B7E8354
:202BA0008483807E7D7E7F7E7C808184877C79808485847D7A7C7D8080837E777A80838524
:202BC000807D818384827D7A7E827E7B7E818483868177797F817F847E798187847E7E7F00
:202BE000807E7B7B7E818181818383817F8080817B787C7F81838482838177797F838381E6
:202C0000808182817D7C807F7A7C7F818485817F7D7E80827A7A7D818387837D7F7E7E7FC6
:202C2000818179777F8383857F7A808486827C7B7E8081807F808080807E7C7C80847D7AAD
:202C40007E838584828581757A8082818281837E767A8083847D7C80848584857C767A7F7F
:202C600083837D7C80838482807F7D7D7F837E797C81817F82807A7D8386838080807F8059
:202C8000827A797D8182828282827F7B7B7C7D80818681797C828384847A7A7F8383867E42
:202CA0007B7D81807F8178777F83867E79808687877F797C7F7E7E7E808281837E767C8234
:202CC00081808182828282827A777C8285827B7E828280818282807E7D7D7D7D7F82857DFB
:202CE0007B7E8284868479797E837C787D84857F80828383827D7C7D7D7E8080827F787BF0
:202D000084837F80838484827A797C8082807E818382808080827B777B80848386857A79B7
:202D20007E81847B777E858682858275788184847F7D8182828078787E83867E7B7F83859E
:202D400087827B7B7C7E7F7D7B7E84847F808082827F807F767A818281818182837F7C7D89
:202D600082867E7B7F818281828279757C8083827C7D82838381827F7A7B7F81828281815E
:202D8000837F797B7D7F8284807F82857F7A7C8081807F7F81827F7B7C7F8080828482833E
:202DA0007F77797E828184847E7E8181808081807A797E7F7F8184867F797B808285837A2B
:202DC0007C80857F797B808386837B7C7F828482797A7E8380828379798082808484787C0C
:202DE000848786837A7C7D7E7E7F7E7D81817A7C8184838386827A7C7F7F7E808480797BE1
:202E00007F8181837B7B7F848482817E7B7D7E83847979828687847B7A7D7F807D7C7F80C5
:202E200080828285817A7C7F8184857E7E82807A7A7E7F7F8184867D7A7C81847E7C7D81A0
:202E40008280827F777C828385827A7E8588807C7C7F7E80807979808382857E787D84847F
:202E600085867B797F808080797A808381808183827C7B7C7F8082847D7B8184837D7C8066
:202E8000828283837E7A7B807F7B7D7F818288857D7D7E8081837C797D8082827E7D7F8043
:202EA0007E7F84807B7F8484817F7F8080817B797D8183827F7F818382807E7D7E7E7F7F1F
:202EC00080807F8184817B7C7E8283807F7E7F7F827D777B808385867E7E80828182797609
:202EE0007C828183847B7B828484837A7A7F82827D7C81837D7C80838081827E7C7C7D7FE4
:202F0000817D7B7E81838482818180807E7C7B80817D7D81828284817D7D80817A7A7E81C6
:202F20008286827B7D80838582797B7F8381828182807B7A7E8081818080807F7D7C80819B
:202F40007C7C7F828684807F80807E7C7D7E80827B7B7E838384867E797E8183817B7C7F84
:202F6000838380807E807E80807878808382867F7A8183857F787B808383817E7F83827760
:202F80007A80858383847C767C807F8283797B828687867C7B7D7F807E7B7D7F8286867E39
:202FA0007D7E7F807F7C7E80808081808280787B7F8286877F7D7E7F7E7E817F797C81852A
:202FC000847E7C82867F7B7E808182807D7F81807E7E81827A797E8385857D7E80828081F8
:202FE0007A787C808384807F7F82857F7B7C80818080817A797F8382828284827A7A7E82EA
:20300000807F817B787E838386817A7D818486837C7C7C7E80837C7A7E828487827B7C7FBF
:203020007F7D7C7F808381787B8186817C7F838585817D7D7D7D7E7E7E7F8182818081829D
:203040007C7B7D808285817F7F7E7F7F80817B787D8385807F818384837A777B8081848086
:203060007B7F83848080817B787D808484807F82827C797D81817E80828383827E7B7B8063
:20308000807B7D7F818585807F7E7F80817A7A7E838481857E747C81817F81808080818140
:2030A00081807F7F7F7F7F7F7F7F8183817E7F81827F79797D7F8184807A7E8286867E7D1F
:2030C0007F8082827D7B7D7E807F7F808181807F7F827F7A7C8085817F81828282807D7C00
:2030E0007D7E7E80818481797B7F8283807D808283827F7E7E7F7F7F7F7F807E7E808384DC
:203100007B787D82828180818084857979808485857D7B7C7D7E827D7A7E81838383847CC0
:20312000767B7F82817D7D80838282847F7B7D8080818182837A777C8082817D7F828484A3
:20314000817F7E7D7D7D7E7F80808082847D7B7E80818182837D7A7C808182847B797E838B
:203160008281807E8381797D80807F8182807A7B7F8281808081828382817E7E7E807F7861
:20318000798186807B7E838585847B797B7E80807C7E818483827F7F7E7E7E7F7F7E808040
:2031A0008281797B80848488827A7E8580797B80827F8280787B818184837A7C848685850C
:2031C0007C797C82817B7C7F82818480797B7E83837F7F808182817F7D7E7F7C7C8083840C
:2031E000807D8083827F7E7E7F7F7E7F8185817B7D7F82838380807F7A7A7C8084837E7FDE
:203200008184827E7C7D817F7C7C7D7F8085807B7F82848384847D787A7E817F7E7F8182BF
:20322000838180827E7B7C7E8183867E797D80837E797C818485847E7E817F7A7C8083809E
:203240008082857F78797E8081847D7A808486817A7C808283837B7B7E8283807E8080807D
:203260008080817B777B7F83837F80828383807E7D7E7E7F7F7F7F7F807F81817A7B7F836A
:2032800084857C7D818682797B7F84847E7C8083857F78797C7F8285807E8081807E808037
:2032A0007A7B7F818485818080807D7D7E80827B797E84848282807A7C808081827E7E831F
:2032C000848581787981837A7A808483838479787E84817A7C828585837C7C80807A7C8006
:2032E000828283848379787E83807A7D80828285867E7A7C80807F80808280818179797DE2
:20330000818385817F8180807F808079797E8284827E808384817F7F7E7C7D7D81817A7BBD
:2033200080858487857B7A7E7F80807A7B808382808482797B7F838487807C7D7F7F7E7A96
:203340007D807E7F81838486807A7C7E7E7E8084837D7C7E80837F7A7D818683807E7F7F78
:20336000807E7A7C7E7F818285837B7C80848285827A7C8081827F797B7F82827E7D7F8163
:20338000817F7F7F808080837D7A7F818385837F7E7E7F817D797C808284847C7E81858132
:2033A0007A7B7E8183837F7F8081807D7A7C81807D7F81838384857C767A80818182828022
:2033C0007F7E7D837F767C838587827C7E7F807F7B7A7D82857F7D808386827D7C7E807F00
:2033E0007A7A7E8285837D7F828384847C7A7B7E8080837D797F83817F7F808180827F78E5
:203400007C8184857E7C80828383857D78797D808084807B7F8384847F7A7C7F82817E7DB9
:203420007F80807F7F8081807F7E7F807F7D7E83857E7D7F84847D7D7F818285827A7A7C9B
:2034400080817B7B7E838487847C7B7D7E7D82817B7C808386857F7E7F7E7C7D807F7E7E80
:20346000818180827D797C81838285827C7E8182827D7C7D808284847C7B7D8082837E7C57
:203480007E8081807C7D80807E7E80828385837E7D7D7F7E817F797C80838282857F7A7E3E
:2034A000818383817F7F7F7F7D7B7B807F7D8081828385837B797C7F7F83807A7D83888315
:2034C0007E7F8182827B787B808183847C7C80848281807C7C7E8082847D7B7F8282817FFE
:2034E0008080797A7E818487827D7E7F8082817B7C7E8081807E7F7F8080807F7F7E8284DC
:203500007F7C7D7F8082807A7D82858180808281818079787D818184837C7E8283828282B3
:203520007F797A7C7F807F7F83847F7E80818283807E7D7E7E807F797B7F8485877F7C7FA3
:20354000807E7D7E7F807D7D7F8181808183807C7F8180818183807A7A7D807F82827C7E85
:20356000818282817F8180797A7E838387837C7D7F80817D7A7C808282847E7C7E8182864F
:20358000857C7B7D82807C7D7F808082837C7A7D808385817D7E7F81817E7C7E8080807F44
:2035A00082837E7D7D7F807F81817A7B8386807F8184817F807A787D828284827A7D828317
:2035C00083837B7A7F8283827B7B8083847D7A7D8185877F7B7D807E7E80797980838483FD
:2035E0007D7F828283807A7D7F8284837F7E7F817C7A7D7F8182828080817B797D818382DD
:2036000080818282807E7C7C7D7E808282807F7F7F7F7E7C7E7F8083857F7D7F81838582AF
:203620007B7B7D7F7F83807B7D818485837D7C7D7E7F7E7D7E80818185817C7E80808182A0
:203640007E7D7D7F82807B7C808384827D7E80818081837F7B7D7F81817F80827E7D7E7F80
:20366000808181818181807F7D7D7D7C7D81827E7E818385837E7D7E7F7F817D797C80835E
:203680008481808182827F7E7D7C7E807F7E7E7E7E8082867F7C81838381817D787A7F8239
:2036A000827F7E808384827F7D7D7D7E7E808282847F797B7F8285847E7E7E81807E7C8016
:2036C000827A7A8084838487817B7B7D80807E7D80838381807E7E7F7E807F797C818485F5
:2036E000807D808382827F787A7E828183847E7D81807E807D797D828482807E7D818078E4
:203700007B808486867F7E7E7E7F7E7C7D7F818182828281807E7D7D7D7F80817F817F7AB9
:203720007D81828283847F797B7D7F7F82837E7D7F828386827B7C80817F7F82837C7A7C99
:203740007F81827E7E7F7F7F82817B7D8182828283827C7A7C7F807F7F8081828382807D73
:203760007D807E7B7E8181828280827C777B80828183827C7E8282837F7A7C8083817E7F60
:203780008182817F7E7D7E807F7B7C7F828282807E7D7F7F82847D7B808487857D7A7C7F39
:2037A000827E7B7E828384827C7C7C7E807E7C7F8183837F7E80838482807E7D7E7E7D7D1C
:2037C0007E7C7E818283827D7E8184817E7E7F807F7F7F81828480797A7E8383807F8081F2
:2037E00080817C797C808283857E7D818485827B7B7D807E817E797E8282818182817E7CDC
:203800007D7E7E82847E7D80838283837B7A7D8184827E7E7F807F817B787C8083847F7FBB
:20382000828383817E7D7D7E7F81817B7B7E8283827E7F8081807F7F7F7F7F7E81817E7D99
:203840007E8082827C7C80848485817B7B7E7F817E7C7E808382857E797C81838281807F71
:203860007E7E7D7D7E7F80828282818182817A797C7F8080818183807E7F7F808082818058
:203880008081817A787B7E81817F8183828182847E787A7F8083817B7D828486857D7C7D3B
:2038A0007F7E7F80797B8084847D7E818483848079797D8082827E7F818382807D7E7E7E1C
:2038C0007E8081807C807F7D7E818485857E7C7D7E7F7F7E7D7F817D7D8083848281817EF3
:2038E0007C7C80817C7C7E828387847D7C7D7F7E817E797D82838283847D7B7F82817F7FDB
:2039000080817D7B7C7D7F80808082838382807E7C7E807D7D7F818383857F797B7F827FBC
:203920007E7F818182827C797D8083827F7F828383817F7E7D7F817E7B7C7E80817E7B7FA0
:2039400084847E7E808383828280797A7C7F8084827C7D8185838580797A7D7F7E7E828170
:203960007C7E838583807E807D7C7E7F818181847E797C808080837E7A7F8384857F7C7E55
:2039800081827E7C7E817F7E7E7F81807E7D7F80818282818080827F7A7C80818081828134
:2039A000808080817B787B7F818184827D7E828582807F7E7E7F7C7A7C7F818285807C7F1F
:2039C000838482807F7E7E7E7B7B7E8081818182828282837D797A7E8081847E7B7F8384F1
:2039E000837E7C7E8081807E7F7F7F81837F7A7D8084857F7D7F817F7D7E7C7C7F818384D8
:203A00007F7E8283817B7A7C7F8080818182838480797B7D7F8081828182837F7C7B7D7FBD
:203A200082817C7D808283857F7C7F82807F7F808282817F7E7D7C7D7E7E7E7F83837F8090
:203A400080818184807A7B7E8081827C7B7E8183827D7E7F8181807F7F7F7F7E81817D7E7C
:203A600081818183847D7C7D7E7E7F827E7A7D828484857E7A7F82807E7F8182807C7C7D57
:203A80007F7F808081828181807F7E7C7D7F83807B7D818487837C7E80827B7A7C8083852F
:203AA000847E7D7E7F7F7E7B7D7F82828282808080817E797B7E81838383827D7B7C7F801E
:203AC0007E7E8082828282808080797A7F8180818283837F7C7C7C7D80818184807A7E83F5
:203AE000857E7D7F828381827D76797E807F82847E7C808485827F7E7E7D7E7E7D7E8281D9
:203B00008080808181837E797C81838183817A7B7F8081817C7C8387817C7D80817E7D7EB8
:203B20007F7E7F818281818184827A7B80827F80837F7B7D8184807D7E8183817F7E7E7F8E
:203B40007F7C7A7C8084827E7F818585807F7E7D7E7D7F807B7B8085828081828282807A74
:203B6000797C8082817E8082828180817F797B7D7F818184827B7C808283857F7C7E807F59
:203B80007D7F7E7A7D80838383847D797C7F81817E7E8083848280807E7C7D7E817E797D45
:203BA0008184857F7E818385807B7B7D7F7E7F7F7B7D8183867E7B808688817C7C7E7D7D0D
:203BC000827D7A7D8287837F7F807F807D7A7C7F818083837D7C8084817D7E7F80808183F1
:203BE0007F7C7E8082818080807F7C7B7C7E7F80808183838281807E7E7E7F7F7E7F8180DA
:203C0000817E797D818284827C7E828283827B7B7E828185827D7D7F7F7E807C787C8183BB
:203C20008384807E80847E7A7E838483837B797E807E7E7F8182817D7D7E7F80808081818E
:203C400080807F81807B7C80838181828281807F7E7D7C7D7E7E7E8184817F81828080806E
:203C6000827F797A7D8082807F81838382807E7D7D7E7E7E7F8180817E7B7D818382828157
:203C800081837E7A7B7C7F8084807C808583807F81817D7C7C7D7F82807C7E808385817F34
:203CA0007F80807E817E7A7C7F8385847D7D7F817D7B7D808284827F7E7E817F7B7C7E811F
:203CC0008485817E7E7E817F7C7D7F8282807E7E7D7E7F808081808180808080807F7F7FEF
:203CE0007F807F7F7F8383787A828585817C7C7E7F7D7D7D817F7B7D808385858080807ED4
:203D00007E7F807F7A7B7E82838280828281807E7D7D7D7F80807F808080817C7B7F8283B9
:203D200081818181807C7A7E82817C7E80828483807F7E7E7D7D7E7F82837F7D7F83817C93
:203D40007D7F828383847E787B7E80827D7B7F828486827D7F818181807A7B7E83807D7D76
:203D60008082817E7E7F7F7E8084817D7E818484867F797C7F7D7C7E818383807F7F7F7F4C
:203D80007E7E7F7F7F8081817E7D7F8082838281807F7D7D7D80807B7B7F828487827E7F2F
:203DA00080807D7B7C7E808182818180807F7E7D7E81807D7D7F80807F7E7F8185807C7F1D
:203DC000828485827E7D7C7D7E7E7E8080828281817F787B7F83837C7C8185848580787AF2
:203DE0007E83807C7E828483847D787B7E81827E7C8084857E7C7F83827E7E808382847EC6
:203E0000777A7E82807C7E82848384827B7B7D7F8083807C7E8082827F7D7E8081807F7FBC
:203E20008080807F807F7E7F817F7D7E808385837F7E7F7F7E7E7E807F7E7E7F8082807C94
:203E40007E8082828281807E7E7E7E7D7E81817D7E8182828282807F7E7E7D7E7F82837E6C
:203E60007D7E818385837C7B7C7E807E7C7F8285807D7F828485827C7C7D7F7E7D7F7D7A5C
:203E80007F828285827D8083827F807B787D8183837D7C808484857F797A7E8082807D7F2C
:203EA000828282827C7B7D80828183817A7B7F81807E7E818383817F7D7D807F7C7D7F8214
:203EC0008484807E7E7E7E7D7C7E81807F8182828282827C787C7E7F8081838281817B79F7
:203EE0007D818286817D7F827F7F807A7A7F8283837E7E8183837E797C81817D7D7F8182D0
:203F000085807C7D808282857F7C7E81808180797B7F847F7C7E8082847F7C7D80828180AE
:203F20007E7E827F7C808386817E7E7E7D7D7E817F7D7E80818284807D7E7F8183817E7F8E
:203F40008081817F7E7E7E7E7D7F817D7C7D808385827D7F8181807F7F7F7E7F7E7E7E7F7A
:203F60007F80808180808080807F7E7E7F82807C7E808283827E7F7F7F7E7E7F807F817E50
:203F80007A7D818385837E7F82827F817D787C808283807D808283817C7B7D7E7E7F828132
:203FA0007D8084807D7F8081828281807F7E7C7C7D7D7D8083817F8081818282817F7F7F0B
:203FC000807D797C7D808285857F7D7E8080827E7A7C808281817D7D7E81847E7C818485F1
:203FE000827E7D7D7D7E7E7E7E7F8184817F8080818080807C787C8081808084817F8082D6
:204000008281817B797B7F81827F80818182837D7C7D808181837D7A7D81847F7D7E8181B5
:2040200082827A7A80847F7E80838381817F78797F8082827C7D8184847E7C7E8182837F8D
:204040007D7E7F8080827D7B7D808385817E7E7D7D7F807C7C7E818386827F807F7E7F7E76
:204060007D7D7E7E7F808182817E8083807E7E7F8081807C7D7F81818081827E7E7F81824F
:20408000817F7D7D7D7D7D7E808283828180807E7C7D80807C7C7F8385837F808080807E33
:2040A0007C7D7E80808080807F7F7F7F80807E7F807E7E8082838381807F7F7E7E7E7F7E16
:2040C0007F8082827D7B7E818080808081807E80807B7C7E82838483807E807F7A7C7F81F3
:2040E000818182817F7E80807B7C7E818286847E7D7E807F7B7C7E818285837D7D7E8181CA
:204100007C7B7E838484847D7A7D7F7F817D7C80828383847F7A7A7E807F7F8185807C7EB4
:204120008286837F7E7E7E7E7B7C7D808184847F7E7F80817F7D7E7F8180827E787B808492
:20414000847F7F828381817C797C8082837F7E81828280817D7B7D8081838281807F7E7D67
:204160007D7D7D808282807F807E7C7F82817F81828282807E7D7D7D7E7E7F80818281804F
:204180007F7F80817E7A7C7F8284807D7F82848383827A777C7F81827E7D808385827F7E2C
:2041A0007E7D7F7F808181817E7B7C80837E7C8083838282817F7C7C7D7F7F7E7F81838013
:2041C0007F80808183817E7E7E7F80807F7F7F7F7F7F7F7F7F7F7F7F7E7F80827F7B7D80F8
:2041E00082848480808182817E7B7C7D7F80818182817F80817C7B7D7F8285837E7E7E7EC6
:2042000081807B7D7F848483847E787C7F827E7C7E82848383817A7A7E80827F7D7F8183AC
:2042200083817F7F7E7E7E7E7F80837F7B7D818384847E7C7D7F80807C7C7F818281807F8F
:204240007F80807F7E7E7F82827D7B7D8083817D7E818586807C7E7E807F7A7B7E81818372
:20426000847E7D808283837E7C7D7F807F7D7E7F7F807F7F8081827E7D7F7F808385807D4A
:204280007E7F8080807F7D7C7D80817F8081818182837F7C7D7F8182817D7E818282817F29
:2042A0007E7D7D7D7E7F7F7F8081827E7B7F817E7E80838483847D797B7F8083827E7F8016
:2042C0008180817E797B7F8283807D808283837D7C7F808283817F7F7F7E7D7E7E7F7F7BF6
:2042E0007C7F828284817E808284837E7C7C7E7E807F7B7C808583807F808081807B7A7DD1
:20430000808183847E7D7F8286837F7E7E7E7D807D7A7D80838481808182817F7D7C7D7EA7
:204320007E7F8080807E8082838382807E7D7C7B7D7F83807C7E818384827D7E8082828282
:204340007C7A7C7F81817D7D7E7F808183807B7D808181818383807E7D7E7E807F7B7D8080
:20436000828482808181817F7D7C7D7E7F808281827F7C7D7F8183827F7F7F7E7D80807C4A
:204380007D7F8285828180807E7D7E7F7D7B7E82847F7E7F818384817E7E7D7E7F81817D29
:2043A0007D7F8182827F7D7E7F807F7F7F7E7E80827E7D7F818284847E7D7D80827F7C7C12
:2043C0007F7F80817C7D7F8384838581797A7E8081827D7E8183827F7D7F7C7C7E818384E8
:2043E000817D7D7E7F7F7E7E7F8182818082807E7D7D807E7D7E808184827D7D81847F7DD2
:204400007F8283827F7D7D7D7D7E808080818284827C7B7D7F81807E80828283837F7D7CA8
:204420007C7D7F7F7F80828382817F7E7E7F807C7B7E81838382817F7D7D7C7E7F8183838C
:2044400083817A7A7E8081817E7E818381818181807E7D7C7D7E7F8182818081827E7C7E70
:204460007F818180827D797D818284837E7E808181827C7B7D8081827E7D7F82837F7D7F4B
:20448000808283817D7E7F7F7E8080827E7A7C808285827E8081817F7E7D7D7D7E7F80802F
:2044A0008182828281817C797C7E81817E7F82817F82837E7C7E82827F80818180807D7B09
:2044C0007C7D7F808182828281807F7F7E7E7F80817D7D7F80818182817B7B8184818081E7
:2044E000828280817C787D8083817C7D818385847D7B7C7E807F7D7E7F8083847E7E7E81CF
:2045000083817F7F7F7F7D7E807B7B7E82868380808080807D7B7D7F8182807E8083827EA9
:204520007E7E8083837E7E8080807F7A7A7E8281818181807F817F7C7C7D808184807D7F91
:204540008182817F7F80827F7C7E7F8184837F7F7D7C7C807F7C7D808285827F8080808163
:204560007D7A7C7F8384847E7D7F817E7D7D7F8082807D7E808282807F7F807F7F7F81824D
:204580007E7D7D7F8081817D7C7F8283828080807E7D7F807D7D7F818385827F7E7E7E7E2E
:2045A0007D7D7F80818181817F807F7B7D7F8181818282817F7D7F80808181807F7C7B7D11
:2045C0007E82817C7D828586827D7D7D7E7E7E7E808182818181817E7A7C7D7F8082847FE7
:2045E0007D7F828383807B7D7F807F80817F7C7C7D7F7F7F8083817F7F808284817D7D7FCD
:204600008082817D7D7E80807F7E7D7D7E82827C7F838583837C797B7F81817E7E7F8183AD
:20462000837E7E7F808282837F797B7E827E7B7E828485857E7D7D7E7E7F807C7B7F82848C
:2046400084807F81817F7E7E7F7D7C7D80817D7D7F828384857F7B7C7F7F7F817D7B7F8270
:204660008284827C7D80838385807B7C7E7E807C7B7E8284817F7F8081807B7C7E82838442
:20468000847E7B7D7F80817D7C80838381807F7E7D7C7E817F7D7E82838182818180817F27
:2046A0007C7C7D7E80818181818080807F7E7E7F7F7F7F7F80807F817D7C7E80828382810E
:2046C0008180807E7C7D7E7F8182827F7D7E807F7C7F8183838280807E7E7D7E7E7F8082ED
:2046E000837E7C7D7F81837E7C7E81817F7E7E7F7F80808181828181807F807F797B7F82D1
:20470000828282837F7C7C7E7F8080808081807F7C7D7F81828381807E7E7F817E7B7C7FAD
:20472000818284807D7F82847F7C7E818384807D7E7D7E80817C7C7D808082807C7D808286
:2047400084827D7F818384837D7C7C7E7F7F7D7E808181807F7F8081807C7B7E82847F7E67
:204760007F818384837C7B7D7F7F808182827F7E7D7D7D7E7F7F808182838281807E7E7E45
:204780007E7F7F7F8082817D7D7E7F8083827D7C7F8081817C7C80838486807E7F807E7D28
:2047A0007E7F7E7D7E817F7E80818181828382817F7D7C7C7D7E7E7F82827F808183838004
:2047C0007E7D7E7E7F7D7C7E8082828282828080807F7E7C7C80817E7E7F8284837E7F7EED
:2047E0007F7F827F7C7E818381828079797E7F81827D7D8186857F7E7E7F80807C7C7E82CF
:204800008180807F8081807C7C7E80818182827F7F817C7A7E818284827F7F81807E807DA5
:204820007A7D808283807E8082837F7D7C7D7F81827D7C8083827D7E808482807E7E7E7D8C
:204840007C7F817C7C7F828385807E8082807D7D7E80828281807F7F7E7D7D7E7F7F808369
:20486000827E7D7E7F7F817E7C7E81838481808181807F7D7C7D7F8081807F807F817E7B4E
:204880007C7F828183837E7E8082827F7E7F7D7C7F8181808081807D7C7D7F81827E7E8029
:2048A000828281808080807F7F7F7F7F8080818283807B7B7C7E81818081808081817D7C04
:2048C0007D808285827E7E7F807F7E7D7F80808182837F7B7C7F8182807E7F8081838280DD
:2048E000818080817F7D7D7C7E7F80817C7A7E818284817F818283817D7B7C7E8080807FD0
:20490000808181827C797D808183817D7F8183837E7C7F82827D7D7E808282817F7E807EA4
:204920007B7D7F808185847F7E7E7E7E7E7E7F80818181807F7F7F7F7F7F7E8082807E7E8B
:204940007F7F81807D7E7F82838281818080827F7A7B7D7F7F81827E7C7F828484807E7F61
:2049600080807F7D7D7E7E7E80817E7D808282818081807B7C7D7F808384807F7F80818247
:204980007E7C7D7E80817F7E7E7F81827E7D7F838486827D7C7E807F7E7D7D7E7F8182812C
:2049A0007F818183837F7C7C7D7F807E7E7F818282818181807F7E7E7F808080807E7F8003
:2049C0007C7B7E818386837E7E7E807F7B7C7E808385817F7F7F7F7E7C7D7E8081828383E4
:2049E0007F7C7D7D7E7F81827F7F7F808181827D7B7D7F8081818082807C7D7F82838681C5
:204A00007C7D7E807F7B7C7E818285837F7F8082817D7B7D7E7F817D7B7E828385817F80AC
:204A2000828282807A7A7D8082817D7E82827E7E7E808080817D7A7E818283807D81858381
:204A40007E7E7F7F7D7E7E7E7E80827F7E7E808082807C7D7F8183837E7E808284847F7D67
:204A60007C7D7D7F817D7C7F82848383837C7A7C7F8284827E7E7F80807E7C7E7F7F80814E
:204A800081817C7B7E8182827E7F818383817F7E7D7D7E7E7F8180808183817C7C7E808027
:204AA0007F7E7E7E7F808282818181817F7D7D7D7E7F8080808081827F7B7C7E7F82837E0A
:204AC0007D808482808081817F7E7F7F7C7A7D8080817F7F81828383817F7E7D7D7D7E7FE9
:204AE000818283817D7E7F7F7F7F807F7E7E7E81827E7D7F81838482808080807E7C7C7EC4
:204B00007F80808182817E7F807F8080807E7E7F7D7C7F8182828283837D7A7C7F828280A0
:204B200080818281817B7A7D81827E7E7F828485817D7D7D7E7E7E7F7F818183827C7C7F87
:204B40008383807E808280807F79797E8082837E7E8185847F7E7D7E7E807F7C7D7F828462
:204B60008380808081817F7B7C7E80808081817E7E80818282807F7E7E7F80807C7C7F8147
:204B800083828081818080807C7C7E80818181817C797D8081827F7E81828282827E7A7B26
:204BA0007D8081807F7F8283807E7F8082817F7E7F81817E7D7F81818180807D7B7D7F8104
:204BC00081807F8081817C7C7E80828482808081817E7D7E7E7C7E808283818081817F7BE0
:204BE0007B7E808081828282807D7C7D7E7F7F8081828384807C7C7E7F7F8181827F7B7CCB
:204C00007E81827F7E80838384827C7B7C7E807F7D7E8184807F8081807F817E7B7C7F82A4
:204C200084857E7D7E8080817E7B7D7F807F808081807D7C7F8182818080818282807F7E7E
:204C40007D7E7E7F818180817F807F797C8083837E7D828483837D797C808082827D7F8265
:204C600084847E7B7C7E7E80807B7D8083847F7D7F82837F7F808181807E7D7D7D7D7F814A
:204C8000817D7E80828282837E7C7E808282807E7F7F7E80827F7D7E7F8082807E7E7F8021
:204CA000807E7D7F8184827E7E808183847F7D7D7D7E7D7E80807E7F8182818181817F7EFF
:204CC0007E807E7B7B7D8183807E7F828583807E7E7E7D7F7F7A7D808283827E8081817FE8
:204CE000817F7B7C7E8082837F7F81827E7C7D7F818180818080807C7B7D808184847F7FC5
:204D000080807F7F7C7C7E808284828180807F7E7D7D7E7F8081828181807F7D7F7F7D7DA9
:204D20007E818484807F7F807F7E7E7E7F7F7F807E7C7F818383807E818382817F7E7E7F79
:204D40007C7C7E808181828181808080807E7B7B7E81807E7F818385817E7E7F7F81807B67
:204D60007C7E81807D7F818284837F7E7E7E7F7F7E7E8081827E7D7F828281827E7B7E7F45
:204D80008081817E80828282807B7C7E80817D7D7F828484817D7D7E7F7E7C7D8182818120
:204DA000818181827E7C7D7E7F8082817D7D7F8182817E7E7F8180807F7F7F7F7F80818200
:204DC0007E7D7E808181827D7B7E81827D7D808384817F808080817F7C7D7E7F7F7F7E80EA
:204DE00081827E7D7E8080808082837F7E7F818385827D7D7D7D7D7D7F807C7D7F828486BA
:204E0000817F7E7E807F7C7C7F828385817D7D7E81827E7C7D80807F817E7B7F82828181A5
:204E200081817F7F8082817F7F80807F7D7D7F7E7D7F80818284817D7D7E7F7F817F7C7E87
:204E4000828383847E7C7D817F7E7E7E8081817E7D7E7F817F7F8081828282818180807F54
:204E60007B7B7D8082807F818283817F7D7D7D7E7F808181818181817C7B7D7F8383807F46
:204E8000818180807B7B7E818284817F8182827C7B7D8082827F7E7F7E7E7E7D7F81828320
:204EA00082807F7F807E7B7C7E8082837E7D7F828385817D7D7D7E7F7E7F7E7A7C8082830B
:204EC000827E808284827F7D7D7D7D7E81827E7E808181828281807F7E7D7C7C7D818180E2
:204EE0008181828280807E7A7C7F81818080828284817A7A7D81827F7E808181817D7B7DC5
:204F00007F81818080828280807F7F807F7D7E7E7F80807F7F7F7F80817F7D7F8082838298
:204F2000807F7F807D7B7C7E7F8283807E7F8183837E7C7E808183807C7C7D7F807F7C7E90
:204F400080838283827C7B7E7F81827E7F8181828180807B7B7E808080828383837E7A7C5B
:204F60007E81817E7E8083827E7F7F8081817E7E7E81817F80808080817E7B7C7F8282833B
:204F8000837F7B7C7F827F7E808282807F7E7F7E80807C7C7F8283827F808182817F7E7E20
:204FA0007F7F7F80818181827F7A7B7D808183807D7F8183807C7D808384807D7E7F807F01
:204FC0007C7D7F80818283807C7C7E7F7F81827F7E818280808282817F7F7F7E7B7C7F7FE7
:204FE0007E7F8082838381807E7D7D7D7E7F7F7F8082837F7F7F8181807F7E7E7F7D7E81C1
:205000007C7B808384807F818381807F7A7B7E8182807D7F82837E7E7F8081817F7F7F809E
:20502000808081807D7D7F8081818081817E7C7C7C7E80817E7E8082848380807F7F7E7E82
:205040007D7E80818180807F7D7E817E7D7E818384847F7C7D7E7F7F7D7D7F81828282825D
:205060007E7D7E8080808081817D7C7D7E7F808081818281827F7B7B7E8082837F7D808245
:2050800083837E7B7D808182807C7C7E8081807D7E7F8181807F8080807F7F7F7F7F7F7F26
:2050A000807F7E7F808181828383807C7C7D7F7F7F7F80808082827E7D7E80818180807FFB
:2050C000807E7B7B7D81817F7F80818285837D7C7D7F80827F7F7F8081817E7D7D7E7F7EEB
:2050E0007F7F82827E7F8082838380807E7C7D7E808082817D7D7E8081807E7F7F808182B9
:20510000817D7C7E8082827F7E7E7F7F80807C7D7F8283817E7F81837F7E7E7F8082807FA0
:205120007E7F817F7C7C7F828180808081817F7F7F7A7B7F8183837F8083847F7C7D7F8081
:205140008080807E7D7D7F807F7F808182838281807F7E7E7E7D7D7E807F7D7E808284845C
:20516000818080807F7D7C7E7F7E7F80828383817F7E7D7E7D807F7B7D80828183837D7D44
:205180007F818283807E7F8081807C7B7C7F82807F7F818281827F7A7C7F8182817E80831B
:2051A00082807F7F7E7E7F7C7C7E828383847F7A7D7F80817F7C7F818283817D7F808181FD
:2051C000817F7C7B7E7F7F7F82817F80828382807E7C7D7F7E7D7F80828483807F7F7E7EE1
:2051E0007F80807C7B7E808183807E818382818080807E7B7C7E7F808082827F80828181B9
:205200008181807B797C7F81817E7F8081828282817F7D7D7F7D7D7E7F828483807F7F7EA2
:205220007E7D7D7E7F8081818283807D7D7D7E8183807F7F808180827E7A7C7F8080827F84
:205240007D80838384807C7E817F7D7D7E8081817C7B7E8183807E8182828081817C7C7F5E
:2052600082837F7D7E8082827D7D7E8082837F7D7D7E80807E7E7F7F80808080807F80803E
:205280007F7E7F80818180818181807B7B7E8082827E7E808384807C7D7E80817E7D7F8020
:2052A0008384817F7E7D7D7D7E7F7E7F8183837E7E7F8283847F7D7D7F7F7F7E7E7C7D7F03
:2052C0008183827F80828382807E7D7D7E7F7F80818281807F7F7F7E7D7D7E7F80818080D7
:2052E00080807F7F7F80817E7C7E808181818283817C7B7D7F8182808081807E7E7F8280BB
:205300007F7F7F80807F7E7E7E7F80808080828382817F7E7D7D7E7E7F8081828281807F99
:2053200080807D7D7E7F7F7F80807F7E81807C7E80828384807F7F7F7F7E7C7C7E81838083
:205340007E80828281817D7B7C7F8184827E7F80817D7C7D808281807F7F807E7F807C7C65
:2053600080828284807F8182827E7B7B7E8081827E7D7F83827F7F80808080807E7A7B7E3E
:205380007F8083827E7F818384827F7E7E7E7D7D7E817F7D7E808181837F7B7D7F8080801B
:2053A0008082807E808282807F7F7E7C7D7F80818183817C7C7E7F7F808282807E7E8080FB
:2053C0007D7E8082828181817E7C7C7D7F80808081818282817F7D7C7E807E7D7E808283DE
:2053E000807F80818283817D7C7D7F807F7E7E7E7F81827E7E808183837F7E7E7F80817DBC
:205400007C7F81828282827D7B7D7F8082807D7F8183827F7E81827F7D7F7F80818383808F
:205420007B7B7C7E7F7F7F7F8083837F7E7E81827F7F8081817F7F7E7B7B7E808383818085
:205440007F7E7F807D7C7E7F81838384807D7D7E7F7F817E7C7E8083837F7D7E8080808060
:205460007C7C7F83838180818182817C7B7D7F818081807B7C7F81837F7D80838485807B37
:205480007C7E7F807E7D7F8082828281807E7D7D7D7D7E8082817F818282817F7E7F7E7E22
:2054A0007F7C7C7F8184817D7E818283817D7E7E7F7F8082807D7E81827F7D7F80818181F9
:2054C000807F7F7B7B7D7F818281818181817F7D7D7E7E808183837E7C7D7F807E7E8081E5
:2054E0008281807E807F7D7E8082828280807E7A7C7F818181828281817F7E7D7D7E7F7FBC
:205500008081828281807F7E7E7F7F7E7F7E7D7E808284807E7F818283817D7D7E7F808095
:205520007F7F7F81817E7E7F8082827F7E7E7F7F7F817E7C7E818283847F7E818282817C73
:205540007C7E7E7F7F7C7D808281818182807D7C7E7F8080808181818081817D7C7E81835F
:205560008281807D7C7D7E807F7E7F8182828181817F7E7D7D7E80827F7E7F828383837E34
:205580007C7D7E7F807E7D7D81817D7E81848385827D7C7D7E80817E7E7F8081817E7E7E25
:2055A0007F808080807F81827F7F7F808081827F7C7D7F8081827E7C7E7F8082807E7F81F9
:2055C000838382807D7E7F7D7C7F808282818181807D7B7D7E80807F8082817F7F81807FD7
:2055E0007F7F818284807C7C7D7E7E7F817F7E80828283847F7D7D7E7F7F80817E7D7E80BE
:2056000081807F7F7F8081807D7D7F81828180818282817F7E7E7E7E7E7F80807E7D7D7F9D
:2056200081818182828282817E7B7C807F7D7E7F818183817E7E7F8081818080807F7E7F71
:205640007D7B7C7E818384807F7F807F7E7E7F807F7F7F7F8081807F7E7E7F81827E7E8161
:205660008383847F7B7A7D7F81817D7D80828385807D7D7E7F807D7D7F808183827E7E7F39
:20568000818180807F7F7E7C7C7E80827F7E8082838282817F7C7C7D7E7E808183817E7F1B
:2056A00080818382807F7F7F7E807D7B7D808383807F7F81817F7D7D7D7E7F81807D7E80FF
:2056C00082838180807F80817F7D7D7F8083827F7F7F8080807B7A7D8083827F7F808080D5
:2056E000817D7C7E80828283827D7C7E7F7E7E808183837F7E7F7E7F7F81807D7E7F7F80BE
:205700008180817D7B7E818182837E7E808382827F7A7A7D7F81807E808283827F7E7F7D99
:205720007D7E7F81838381807F7E7E7D7D7F807E7F80818382827F7C7D7E8083827F7F8075
:205740007F7C7D7E80818180807F808080807D7C7F8183827F7F818382817F7D7D7F7F7D5B
:205760007E7F818282837F7B7C7F7F7F80818181827E7C7D808384807F80817F807E7A7B3C
:205780007F8182827F808283827E7B7C7F807E7F80828384817C7C7D7E7E7F7F7F7F808116
:2057A0008181837F7D7E808282807F807E7D7E7F818281807F7F7F7F7E7E7E7E817F7C7EFD
:2057C0008184817F8082828281807C797C7F81827F7E808384827F7E7E7D7E7F81807D7DD4
:2057E0007F8082807E7F818382807F7E7E7F7F7D7C7D7F81828181828281807F7E7E7E80B4
:205800007F7C7D7F8182818281807F80807F7F7E7D7F7F7D7E7F8183838181808081817D92
:205820007C7C7E8081807F808080807F7F7F7F8081807E7E7F7F7F7E80817F7F8083838475
:20584000817C7B7D7F7E7E808182827F7E7F7D7D7E7F8182837F7E7F818284827D7D7D7E60
:205860007E7E7F7E7F8081808081817F7D7D7F808080808182828281807E7D7D7D807F7C3D
:205880007D808283837F7F808182817C7C7D7F7E817E7C7E81828485807E80807E7D7D7E16
:2058A0007E807F7C7D80828384817F8080807E7C7C7E7F808283817E7F7E7E7F80808282F4
:2058C0007F7E7E7F807F7F7F808082807D7D7E8081818181808181817E7B7B7F80808181DB
:2058E0008283817C7C7F817D7D7F81818182817E7E7F808080818181807F7F7E7D7D7D7EBC
:205900007F8081808081817E7F7F7F808182807D7E7E80808080807C7D7F8182807F818291
:2059200082807F7E7E7F7D7C7D7F81848380807F807F7E7F7D7B7E818181818181827F7D79
:205940007F8182827F7C7D7E80808080818181807F7E7D7D7D7D7F82807E7F818483818052
:2059600080807F7F7C7B7C7F818285837F7E7F7F807E7C7F8181818182807C7C7D80838139
:20598000808080807E807E7B7D7F8183828080807F7F807C7B7D81818384807E807F7F7F18
:2059A0007C7C7E8182817F8083817F7F7F807F7F7F7C7A7E808183817F8184847E7D7D80F7
:2059C000817E7B7D7F8082807E7F81838583807F7E7D7E7E7D7E7F8182828281807F7E7ED3
:2059E0007E7F7F8081807F7E7F7E7D7F8082838281807F7E7D7D7E7E7F8283807E7E8081B8
:205A0000807E7F7F8080807F7E7E80817E7E80818483807F7E7F817E7B7C7E7F8081837F98
:205A20007E8182828282817C7B7C7E80807F8080808183817E7E7F808284817E7D7E7F7F70
:205A40007C7C7E81828383817C7B7E817E7D7E818385837E7D7E7E7E807F7C7E8182838255
:205A60007F8080807F7D7C7E7F808283817F7F7E7F7F7F7F7E7F8081827E7C7D7F8182803B
:205A800080828281807F807F7C7C7D7F808181828181807F807E7B7D7F818181808081830E
:205AA0007E7D7E808284817F7E7D7D7E7D7D7F8081828282807F807F7D7D7E818384807DF6
:205AC0007D7F7F807E7B7D808282847F7D7F8181827E7C7E82827F7F7F81827F7C7D7E7FDD
:205AE00080807D7E8082828181807F7F7E7C7D7F80828484807D7D7D7E7F7E7E7F808282B4
:205B00008180807F7D7D7E7F80818182817D7E7F8183837F7E7E7D7E7F7E7F7E7B7E81829C
:205B200083817F81828281807E7D7D7E7F7D7E8083817F80808283827F7E7D7D7D7E7F8071
:205B400082807E7F81838282817B7A7D7F7F8082807D7F828483807E7D7D7D7E7F80828250
:205B6000807E7E7E7F7F7F80808082807E7E7E7F807F7E7F80818284827E7D7E80817F7E37
:205B80007F818281807E7E7E7E7E7E7F80808182807F7E7F807F807F7C7C7F828482808013
:205BA000818282807C7B7C7E80807E7F81838180807F808081807C7C7D7F818283807E7FF6
:205BC0007F7F7F80817E7D7E80828183807C7D7F8082807E7F8081817F7E7F7F7F7F7F7ED9
:205BE0007E80817F7E7F818383807F808281827E7B7C7E7F81807C7D7F8182807E7E7F81B5
:205C000081827E7C7D7F81838180818180807F7E7E7D7C7E8083817E7F8183817F7E7E7F92
:205C20008081827E7D7E8082817F7E7F8080807F7F7F81807F7F80818281807F7E7E7E7E72
:205C40007D7D7F817F8081828282807F7D7D7F807E7D7E808284807F808182817F7E7D7C54
:205C60007D7E7F80817F818381808081807D7B7C7E8082817E7F808282807E7F7F7F7F8133
:205C8000817E7D7F82817E7F808383807E7D7D7E7E7D7D7F808181808182807F7F81818011
:205CA0008080817E7A7B7D7F8083817E80828382827E7A7C7E80827F7D7F8283807E7E7FFA
:205CC0008082817F7F7F8180807F7B7B7E80827F7D808385847F7D7D7E7F807E7D7F8183D2
:205CE00082807F7F7E7D7E807F7D7F80828282827F7C7C7E8182837F7D7D7F80827E7C7DBC
:205D00007F8082827E7E818384827E7E7E7F7F807D7B7D8081828080838180808080818184
:205D20007C7B7C7E7F8082807E7F81848383827E7C7C7D7F81817E7E7F8181807E7E7F807B
:205D400081817E7D7E80827F7E7F80838482807F7F7E7E7F7D7B7E8082827F7F81827F7E50
:205D60007E7F7F818280807F8080807F7B7A7D818180808181827F7C7C7E82817F7F808236
:205D80008483807E7D7D7E7E7E8080818282817C7B7D7F82807E7F818383817F807E7B7D15
:205DA0007E818383837F7B7C7D7F807E7E7F828383837D7B7C7F8082817F808182827F7CEE
:205DC0007D7E7F8081807F7E7F817E7D7E808284838080807F7F7E7D7D7E7E7E7F808181D8
:205DE00081828281807F7F7E7C7C7E8081818181818180807D7C7D7E808180808081817EB0
:205E00007E7F808284817E7D7D7D7F807D7E7F8182838281807F7D7D7D7E7F808081818290
:205E200083807D7C7D7E80817E7E7F8183828180807F7D7E807F7D7F80828382807F7F7E70
:205E40007E7E7E7E7F807F7E7F827F7D7F8283838281807E7C7D7D7E8082827F7F80818250
:205E6000807E7E7F7F80807F7F7F81827E7E7E818283827D7B7C7E7E817E7C7F8282848430
:205E80007F7E7F817E7B7C7F8183827F7F8081817F7E7E7E7F8082807D7E7F80807F7E8119
:205EA000817D7E80828485817E7D7D7E7E7D7E7F828384817D7D7D7F807F7F8081818280EA
:205EC0007B7B7F8082827F80828180807F7E7D7C7D7F8080808182817F8080808281807ED1
:205EE0007E7E7F7E7D7F8181818181807D7C7D7E7F7F80818283807E7E808182807E7F80B4
:205F000081817F7D7E7E7E7E7F7F7F7E7F817F7E7F81838583807F7E7E7E7D7D7E80848390
:205F2000807F7F7F807E7C7D7F818281808080807F80817E7E8081818081807C7A7C7E807B
:205F4000808182807F808182817F7F7E7D7E7E7F818482807F7F7F7F7F7C7C7E7F81828449
:205F6000817E7E7F8081807D7E7F8081807F7F7F8080807F807F7F7F80817E7D7E8183832F
:205F800084807D7E7F817F7D7D7E808080807D7C7F8183807F828382817C7B7C7F817F7F17
:205FA000818384817D7C7D7F80817F7F7F807F817E7D7E808284837F7E7E7E7F7E7C7F80F2
:205FC000807F80818183827F7F808181807F7D7C7D7E7F807E7F818282828181807F7C7CCC
:205FE0007D7F808183807F7F818382807F7E7E7E7F7D7C7E8081828382807E7E7F7F7F7EAF
:206000007F80817E7D7E808284817F7F7F7F7F7F7E7E807F7D7F8081818383807F7F7F8189
:20602000817F7E7E7F7F817F7C7C7E808183817E7F8184847F7E7E7E7F7E7E7E7D7D7F8179
:20604000818181818282817F7E7D7D7D7F80807F7F80818080808183817F7E7E7E7E807F4A
:206060007C7E8080818182817D7D7E7E7F8182807F808182827F7F7F7E7F7F7F7E7E7E7F34
:206080007F7E7F8080818284807E7E7F8082807E7F8081817F7E7E7D7D7F807E7E8183820B
:2060A00081807F7F807E7C7D80818183807E7F828181807C7C7F8082827F7F80817F7C7CF3
:2060C0007E818383807F7F7F7F7F7E7F808080807F7F7F7F817E7D7E808182837F7E7F81CA
:2060E00082817E7E7F80807F7F81807E7F7F807F8081807E7E7F8080807F7F8080818281AA
:20610000807E7D7D7D7D80817F808283828180807E7C7C7E7F80808081828282817F7E7E8F
:206120007D7F7E7C7D7F818183817E7E808182827F7F80808080807C7A7C7F818180818173
:206140008281807D7C7D80817E7E8082838381807D7C7D7E7F8081818281807E7D7E7E7D54
:206160007E7F8082838281807F7E7D7E7F7E7D7E81838281817E7C7E8081818181817C7B2E
:206180007C7E80817F80818282817F7E7D7C7D80807E7E808282827F7F808181807F7E7E0F
:2061A0007E7E7E7E7E7F7F7E8081828282817F7E7D7E7F7D7E7F80818383807E7F80817FF0
:2061C0007E7F8183827E7D7D7D7E807E7D7E8184838180807F7F7E7C7C7E8082837F7E7FD4
:2061E0008082827F7E7E808080817E7C7E818283817D7D7F7F807F7C7D7F8081827F7E80B1
:206200008281818080807F7E7D7E7E7F7F808281818181818081807C7C7D7F808080807C8E
:206220007D7F8182827F80828383807D7C7D7F80808080807F80807D7D7E81818181818164
:2062400081807E7D7D7D7E7F7F808182818081817D7C7E7F7F7F8081828282827F7B7C7D56
:2062600080807F80818283837E7B7C7E81807E7E80828383827D7C7C7E8081808180808027
:2062800080807D7B7D7E8081838280817E7B7D8081828080818282807E7D7D7E7F817F7C15
:2062A0007D8082807E7F818384847F7D7D7F7F817F7C7E7F7F7F80817F7D7E7F80808081ED
:2062C00082817F80808182817F7E7E7E7E7E7E7E7F7F80807F7F7F80817E7D7F8183827FCC
:2062E00080818283807D7C7D7F817F7D7E808182807E7F7F808080807D7C7F8181818182AB
:20630000817E7F818281807F7F7E7D7C7D81817E7F80828484807E7D7D7E7F7E7F7F81828C
:206320008282817F7E7E7E7E7F80808080817F7C7E7E808284837F7D7E7F80817E7D7E7F6F
:2063400080807F807F7E7F8082828280807F7F7E7E7E7E7E81818080818283807D7E7E7F48
:206360007F807F7F7E7E7F808080808181828281807F7E7D7E7E7F7F808281808080808027
:2063800080807E7C7D7E80817F7E8082838281807F7E7E7F7F7F8081807D7D7F8182837F0B
:2063A0007E7E7F7F80807E7E80828282827D7B7D7F81817E80818282817D7C7C7E7F7F7FF5
:2063C00080818281807F7F7D7E7F808081817F7E7D7E7E80827F7D80838383807C7C7D80CD
:2063E000807F7F7F8082827F7E7F7F81817F7E7E7F81817E7E7F8183817F7E7E7F807E7BB0
:206400007C7F818183807E7F828384817E7E7E7E7E7E7F7F7E7F7F7F80807F817F7D7E808E
:206420008183837F80818282827E7C7D7E7E7F80817E7D7E808181808182807E7E7E808163
:206440007E7E7F8183848180807F7F7E7E7E7E7D7D80807F8080818183817E7E7F82828341
:206460007F7D7D7D7E7E7F7E7C7E8081828282817F7E807F7D7E7F81838481807F7E7E7E33
:206480007D7E7F80828382807F7F7D7D7E808081828281807E7D7D7D7E7F80818281828205
:2064A0007F7D7D7E7E7E817F7C7F828281837F7C7E818182837F7D7F80807F7C7C7E8180F5
:2064C0007E7F818283817E7D7E7F80817E7D7E8081817F7E7E8081807F7F8081807E7E7ECF
:2064E0007F7F808181818181817F7F7F7C7C7D80818282837F7C7D7F8080818080808080A6
:206500007F7B7C7E81827F7F80828484807E7D7D7D7E7F7D7E808081828282807F7E7D7D91
:206520007D7F81807F80818282837F7C7D7F80808080807F7F7E7E7F81807E7F8182828262
:206540008182807E7D7D7F7F7F7F7F8081807E7E7F818384817F7F7E7D7E7F7D7D7E808250
:2065600083818080807F807F7B7C7E81828283807D7E7E80807F7E7F7F807F7F7F80817E2C
:206580007E7F8182828280807F7E7C7C7E808080808283827F7E7E7D7D7E7F808080818109
:2065A00082807F7E7D7E7E7F808081828281807E7E7D7D7E7F7F80818182817E7F7F8183E7
:2065C00083807F7E7E7D7D7D7E7F8082817E7F808283837F7E7E7F7F7F7E7E7F7F818280CC
:2065E0007E7E808081807C7D80818183807E808383807F7F7F7F7D7C7D7F808181818180A7
:206600007F807E7C7D7F8082827E7E80828282807F7D7B7C7E7F8082828181807F7E7E7F8F
:206620007E7D7E7F808182827F7F81828180807F7E7D7D7E7E7E7E807F7D7F818283828069
:206640008080807E7C7D7E7F8081818281807F7F7E7D7D7E807F7E8080818182817E7E7E51
:20666000808081807D7D7F8081817E7E7F81817F7F808182827F7E7E7E7F7F80807D7D7E2F
:20668000808281818182807F7E7E7E7E807E7D7F8182818182807E7F808080807F7F7F8100
:2066A000807D7E81807E7F7F818282827D7B7C7D7F8082817F80818282807D7E7E7E7E7FF0
:2066C00080817F7F7F7F808182807E7E7F8081827F7C7E80818080807F807E7D7E808282C6
:2066E00083837F7C7C7D7F7F7E7E81828182818181807E7D7D7E7F81807D7D7E8082807EAF
:206700007F818383818080807F807D7C7D7F8283817E7F808080807C7B7E80818381808180
:206720008182807E7E7E7E7F817F7E7E7F80807F7E7F8181818283817E7D7E808183817D64
:206740007D7F7F7E7F807D7D7F8283828181807D7D7E7F81818180807F7F7F7F7F7E7F804D
:20676000817F7E7F8080807F80808080807F807F7E7E7F818281807F7E7F7E807E7D7E802D
:2067800082838382817D7C7E81807F808181827F7C7C7D80808081828283817D7B7D7E8102
:2067A000817E7F80838381807F7E7D7D7F7F7D7E8083817F7F818180807F8080807F7F7FE4
:2067C00080808080807F7F7F7F7E7F7F7E7F7F7F817E7D7F8182848380807F7F807E7C7ECB
:2067E0007F828282817E7D7D7F807D7E7F81828383807D7D7E7F808181807E7E7E7E7F7FAA
:206800008081818181827F7C7C7D7F81817E7F818382817F7F7E7E7F7C7C7E808183817E87
:206820007E808181827F7D7E8080817F7D7E818382807E7E7F7E7E7E7E7F7F807F7C7D8072
:206840008183817F808283817F7F7E7C7E7F8081818181807D7D7D7E7F808282808080803D
:2068600080807F7C7D7F808183807E7E7F808080807E7C7E808182807F808283817F7E7E27
:206880007E7E7E80807E7C7D7F81807F81818282817F7E7E7E7E7F80818180808182807D09
:2068A0007D7D7E7F80818281817D7B7D7F80827F7E7F8181818080817F7D7F8081828282E4
:2068C0007F7B7B7D7F81817E7F818383817E7D7D7E7F7F7F8081828281807E7E7F7E7F7ED1
:2068E0007C7E80818283807F7F808081807E7E7F80818280807F7D7D7E80818281807F7EA3
:206900007E7F7E7D7E7F81848380807F7F7F7E7E7E7F8081807F7F7F8080807F7F7F808089
